{
  "_format": "hh-sol-artifact-1",
  "contractName": "FactoryGist",
  "sourceName": "contracts/FactoryGist.sol",
  "abi": [
    {
      "inputs": [
        {
          "internalType": "string",
          "name": "_contractName",
          "type": "string"
        },
        {
          "internalType": "string",
          "name": "_uri",
          "type": "string"
        },
        {
          "internalType": "uint256[]",
          "name": "_ids",
          "type": "uint256[]"
        },
        {
          "internalType": "string[]",
          "name": "_names",
          "type": "string[]"
        }
      ],
      "name": "deployERC1155",
      "outputs": [
        {
          "internalType": "address",
          "name": "",
          "type": "address"
        }
      ],
      "stateMutability": "nonpayable",
      "type": "function"
    },
    {
      "inputs": [
        {
          "internalType": "uint256",
          "name": "_index",
          "type": "uint256"
        },
        {
          "internalType": "uint256",
          "name": "_id",
          "type": "uint256"
        }
      ],
      "name": "getERC1155byIndexAndId",
      "outputs": [
        {
          "internalType": "address",
          "name": "_contract",
          "type": "address"
        },
        {
          "internalType": "address",
          "name": "_owner",
          "type": "address"
        },
        {
          "internalType": "string",
          "name": "_uri",
          "type": "string"
        },
        {
          "internalType": "uint256",
          "name": "supply",
          "type": "uint256"
        }
      ],
      "stateMutability": "view",
      "type": "function"
    },
    {
      "inputs": [
        {
          "internalType": "uint256",
          "name": "",
          "type": "uint256"
        }
      ],
      "name": "indexToOwner",
      "outputs": [
        {
          "internalType": "address",
          "name": "",
          "type": "address"
        }
      ],
      "stateMutability": "view",
      "type": "function"
    },
    {
      "inputs": [
        {
          "internalType": "uint256",
          "name": "_index",
          "type": "uint256"
        },
        {
          "internalType": "string",
          "name": "_name",
          "type": "string"
        },
        {
          "internalType": "uint256",
          "name": "amount",
          "type": "uint256"
        }
      ],
      "name": "mintERC1155",
      "outputs": [],
      "stateMutability": "nonpayable",
      "type": "function"
    },
    {
      "inputs": [
        {
          "internalType": "uint256",
          "name": "",
          "type": "uint256"
        }
      ],
      "name": "tokens",
      "outputs": [
        {
          "internalType": "contract Gist",
          "name": "",
          "type": "address"
        }
      ],
      "stateMutability": "view",
      "type": "function"
    }
  ],
  "bytecode": "0x608060405234801561001057600080fd5b50615faa806100206000396000f3fe60806040523480156200001157600080fd5b50600436106200005e5760003560e01c80634f64b2be14620000635780635673f0b814620000995780637e69bc4414620000cf5780638874468214620000ef578063cd78aefb1462000128575b600080fd5b6200008160048036038101906200007b919062000c6b565b6200015e565b6040516200009091906200102f565b60405180910390f35b620000b76004803603810190620000b1919062000b9b565b6200019e565b604051620000c6919062000f54565b60405180910390f35b620000ed6004803603810190620000e7919062000cc3565b620002b6565b005b6200010d600480360381019062000107919062000d32565b620004dc565b6040516200011f949392919062000f71565b60405180910390f35b62000146600480360381019062000140919062000c6b565b62000861565b60405162000155919062000f54565b60405180910390f35b600081815481106200016f57600080fd5b906000526020600020016000915054906101000a900473ffffffffffffffffffffffffffffffffffffffff1681565b60008085858486604051620001b39062000894565b620001c2949392919062001070565b604051809103906000f080158015620001df573d6000803e3d6000fd5b5090506000819080600181540180825580915050600190039060005260206000200160009091909190916101000a81548173ffffffffffffffffffffffffffffffffffffffff021916908373ffffffffffffffffffffffffffffffffffffffff160217905550326001600060016000805490506200025e919062001252565b815260200190815260200160002060006101000a81548173ffffffffffffffffffffffffffffffffffffffff021916908373ffffffffffffffffffffffffffffffffffffffff16021790555080915050949350505050565b60008381548110620002f1577f4e487b7100000000000000000000000000000000000000000000000000000000600052603260045260246000fd5b9060005260206000200160009054906101000a900473ffffffffffffffffffffffffffffffffffffffff1673ffffffffffffffffffffffffffffffffffffffff1663156e29f66001600086815260200190815260200160002060009054906101000a900473ffffffffffffffffffffffffffffffffffffffff1660008681548110620003a6577f4e487b7100000000000000000000000000000000000000000000000000000000600052603260045260246000fd5b9060005260206000200160009054906101000a900473ffffffffffffffffffffffffffffffffffffffff1673ffffffffffffffffffffffffffffffffffffffff1663f6d8f2cb866040518263ffffffff1660e01b81526004016200040b91906200104c565b60206040518083038186803b1580156200042457600080fd5b505afa15801562000439573d6000803e3d6000fd5b505050506040513d601f19601f820116820180604052508101906200045f919062000c97565b846040518463ffffffff1660e01b8152600401620004809392919062000ff2565b602060405180830381600087803b1580156200049b57600080fd5b505af1158015620004b0573d6000803e3d6000fd5b505050506040513d601f19601f82011682018060405250810190620004d6919062000c97565b50505050565b600080606060008086815481106200051d577f4e487b7100000000000000000000000000000000000000000000000000000000600052603260045260246000fd5b9060005260206000200160009054906101000a900473ffffffffffffffffffffffffffffffffffffffff166000878154811062000583577f4e487b7100000000000000000000000000000000000000000000000000000000600052603260045260246000fd5b9060005260206000200160009054906101000a900473ffffffffffffffffffffffffffffffffffffffff1673ffffffffffffffffffffffffffffffffffffffff16638da5cb5b6040518163ffffffff1660e01b815260040160206040518083038186803b158015620005f457600080fd5b505afa15801562000609573d6000803e3d6000fd5b505050506040513d601f19601f820116820180604052508101906200062f919062000b2a565b600088815481106200066a577f4e487b7100000000000000000000000000000000000000000000000000000000600052603260045260246000fd5b9060005260206000200160009054906101000a900473ffffffffffffffffffffffffffffffffffffffff1673ffffffffffffffffffffffffffffffffffffffff16630e89341c886040518263ffffffff1660e01b8152600401620006cf9190620010d9565b60006040518083038186803b158015620006e857600080fd5b505afa158015620006fd573d6000803e3d6000fd5b505050506040513d6000823e3d601f19601f8201168201806040525081019062000728919062000b56565b6000898154811062000763577f4e487b7100000000000000000000000000000000000000000000000000000000600052603260045260246000fd5b9060005260206000200160009054906101000a900473ffffffffffffffffffffffffffffffffffffffff1673ffffffffffffffffffffffffffffffffffffffff1662fdd58e600160008c815260200190815260200160002060009054906101000a900473ffffffffffffffffffffffffffffffffffffffff168a6040518363ffffffff1660e01b8152600401620007fc92919062000fc5565b60206040518083038186803b1580156200081557600080fd5b505afa1580156200082a573d6000803e3d6000fd5b505050506040513d601f19601f8201168201806040525081019062000850919062000c97565b935093509350935092959194509250565b60016020528060005260406000206000915054906101000a900473ffffffffffffffffffffffffffffffffffffffff1681565b614b63806200141283390190565b6000620008b9620008b3846200111f565b620010f6565b90508083825260208201905082856020860282011115620008d957600080fd5b60005b858110156200092857813567ffffffffffffffff811115620008fd57600080fd5b8086016200090c898262000aa2565b85526020850194506020840193505050600181019050620008dc565b5050509392505050565b60006200094962000943846200114e565b620010f6565b905080838252602082019050828560208602820111156200096957600080fd5b60005b858110156200099d578162000982888262000afc565b8452602084019350602083019250506001810190506200096c565b5050509392505050565b6000620009be620009b8846200117d565b620010f6565b905082815260208101848484011115620009d757600080fd5b620009e4848285620012f3565b509392505050565b600062000a03620009fd846200117d565b620010f6565b90508281526020810184848401111562000a1c57600080fd5b62000a2984828562001302565b509392505050565b60008151905062000a4281620013dd565b92915050565b600082601f83011262000a5a57600080fd5b813562000a6c848260208601620008a2565b91505092915050565b600082601f83011262000a8757600080fd5b813562000a9984826020860162000932565b91505092915050565b600082601f83011262000ab457600080fd5b813562000ac6848260208601620009a7565b91505092915050565b600082601f83011262000ae157600080fd5b815162000af3848260208601620009ec565b91505092915050565b60008135905062000b0d81620013f7565b92915050565b60008151905062000b2481620013f7565b92915050565b60006020828403121562000b3d57600080fd5b600062000b4d8482850162000a31565b91505092915050565b60006020828403121562000b6957600080fd5b600082015167ffffffffffffffff81111562000b8457600080fd5b62000b928482850162000acf565b91505092915050565b6000806000806080858703121562000bb257600080fd5b600085013567ffffffffffffffff81111562000bcd57600080fd5b62000bdb8782880162000aa2565b945050602085013567ffffffffffffffff81111562000bf957600080fd5b62000c078782880162000aa2565b935050604085013567ffffffffffffffff81111562000c2557600080fd5b62000c338782880162000a75565b925050606085013567ffffffffffffffff81111562000c5157600080fd5b62000c5f8782880162000a48565b91505092959194509250565b60006020828403121562000c7e57600080fd5b600062000c8e8482850162000afc565b91505092915050565b60006020828403121562000caa57600080fd5b600062000cba8482850162000b13565b91505092915050565b60008060006060848603121562000cd957600080fd5b600062000ce98682870162000afc565b935050602084013567ffffffffffffffff81111562000d0757600080fd5b62000d158682870162000aa2565b925050604062000d288682870162000afc565b9150509250925092565b6000806040838503121562000d4657600080fd5b600062000d568582860162000afc565b925050602062000d698582860162000afc565b9150509250929050565b600062000d81838362000eb0565b905092915050565b600062000d97838362000f32565b60208301905092915050565b62000dae816200128d565b82525050565b600062000dc182620011d3565b62000dcd81856200120e565b93508360208202850162000de185620011b3565b8060005b8581101562000e23578484038952815162000e01858262000d73565b945062000e0e83620011f4565b925060208a0199505060018101905062000de5565b50829750879550505050505092915050565b600062000e4282620011de565b62000e4e81856200121f565b935062000e5b83620011c3565b8060005b8381101562000e9257815162000e76888262000d89565b975062000e838362001201565b92505060018101905062000e5f565b5085935050505092915050565b62000eaa81620012cb565b82525050565b600062000ebd82620011e9565b62000ec9818562001230565b935062000edb81856020860162001302565b62000ee681620013cc565b840191505092915050565b600062000efe82620011e9565b62000f0a818562001241565b935062000f1c81856020860162001302565b62000f2781620013cc565b840191505092915050565b62000f3d81620012c1565b82525050565b62000f4e81620012c1565b82525050565b600060208201905062000f6b600083018462000da3565b92915050565b600060808201905062000f88600083018762000da3565b62000f97602083018662000da3565b818103604083015262000fab818562000ef1565b905062000fbc606083018462000f43565b95945050505050565b600060408201905062000fdc600083018562000da3565b62000feb602083018462000f43565b9392505050565b600060608201905062001009600083018662000da3565b62001018602083018562000f43565b62001027604083018462000f43565b949350505050565b600060208201905062001046600083018462000e9f565b92915050565b6000602082019050818103600083015262001068818462000ef1565b905092915050565b600060808201905081810360008301526200108c818762000ef1565b90508181036020830152620010a2818662000ef1565b90508181036040830152620010b8818562000db4565b90508181036060830152620010ce818462000e35565b905095945050505050565b6000602082019050620010f0600083018462000f43565b92915050565b60006200110262001115565b905062001110828262001338565b919050565b6000604051905090565b600067ffffffffffffffff8211156200113d576200113c6200139d565b5b602082029050602081019050919050565b600067ffffffffffffffff8211156200116c576200116b6200139d565b5b602082029050602081019050919050565b600067ffffffffffffffff8211156200119b576200119a6200139d565b5b620011a682620013cc565b9050602081019050919050565b6000819050602082019050919050565b6000819050602082019050919050565b600081519050919050565b600081519050919050565b600081519050919050565b6000602082019050919050565b6000602082019050919050565b600082825260208201905092915050565b600082825260208201905092915050565b600082825260208201905092915050565b600082825260208201905092915050565b60006200125f82620012c1565b91506200126c83620012c1565b9250828210156200128257620012816200136e565b5b828203905092915050565b60006200129a82620012a1565b9050919050565b600073ffffffffffffffffffffffffffffffffffffffff82169050919050565b6000819050919050565b6000620012d882620012df565b9050919050565b6000620012ec82620012a1565b9050919050565b82818337600083830152505050565b60005b838110156200132257808201518184015260208101905062001305565b8381111562001332576000848401525b50505050565b6200134382620013cc565b810181811067ffffffffffffffff821117156200136557620013646200139d565b5b80604052505050565b7f4e487b7100000000000000000000000000000000000000000000000000000000600052601160045260246000fd5b7f4e487b7100000000000000000000000000000000000000000000000000000000600052604160045260246000fd5b6000601f19601f8301169050919050565b620013e8816200128d565b8114620013f457600080fd5b50565b6200140281620012c1565b81146200140e57600080fd5b5056fe608060405260006008553480156200001657600080fd5b5060405162004b6338038062004b6383398181016040528101906200003c919062000957565b826200004e816200010f60201b60201c565b506200006f620000636200012b60201b60201c565b6200013360201b60201c565b81600490805190602001906200008792919062000500565b508060059080519060200190620000a092919062000567565b50620000b1620001f960201b60201c565b620000c2836200038a60201b60201c565b8260069080519060200190620000da929190620005b9565b508360079080519060200190620000f3929190620005b9565b506200010532620003ae60201b60201c565b5050505062000e75565b806002908051906020019062000127929190620005b9565b5050565b600033905090565b6000600360009054906101000a900473ffffffffffffffffffffffffffffffffffffffff16905081600360006101000a81548173ffffffffffffffffffffffffffffffffffffffff021916908373ffffffffffffffffffffffffffffffffffffffff1602179055508173ffffffffffffffffffffffffffffffffffffffff168173ffffffffffffffffffffffffffffffffffffffff167f8be0079c531659141344cd1fd0a4f28419497f9722a3daafe3b4186f6b6457e060405160405180910390a35050565b60005b60058054905081101562000387576005818154811062000245577f4e487b7100000000000000000000000000000000000000000000000000000000600052603260045260246000fd5b90600052602060002001546009600483815481106200028d577f4e487b7100000000000000000000000000000000000000000000000000000000600052603260045260246000fd5b90600052602060002001604051620002a6919062000b00565b90815260200160405180910390208190555060048181548110620002f3577f4e487b7100000000000000000000000000000000000000000000000000000000600052603260045260246000fd5b90600052602060002001600a6000600584815481106200033c577f4e487b7100000000000000000000000000000000000000000000000000000000600052603260045260246000fd5b90600052602060002001548152602001908152602001600020908054620003639062000c8b565b620003709291906200064a565b5080806200037e9062000cf7565b915050620001fc565b50565b6200039a6200044560201b60201c565b620003ab816200010f60201b60201c565b50565b620003be6200044560201b60201c565b600073ffffffffffffffffffffffffffffffffffffffff168173ffffffffffffffffffffffffffffffffffffffff16141562000431576040517f08c379a0000000000000000000000000000000000000000000000000000000008152600401620004289062000b19565b60405180910390fd5b62000442816200013360201b60201c565b50565b620004556200012b60201b60201c565b73ffffffffffffffffffffffffffffffffffffffff166200047b620004d660201b60201c565b73ffffffffffffffffffffffffffffffffffffffff1614620004d4576040517f08c379a0000000000000000000000000000000000000000000000000000000008152600401620004cb9062000b3b565b60405180910390fd5b565b6000600360009054906101000a900473ffffffffffffffffffffffffffffffffffffffff16905090565b82805482825590600052602060002090810192821562000554579160200282015b828111156200055357825182908051906020019062000542929190620005b9565b509160200191906001019062000521565b5b509050620005639190620006e2565b5090565b828054828255906000526020600020908101928215620005a6579160200282015b82811115620005a557825182559160200191906001019062000588565b5b509050620005b591906200070a565b5090565b828054620005c79062000c8b565b90600052602060002090601f016020900481019282620005eb576000855562000637565b82601f106200060657805160ff191683800117855562000637565b8280016001018555821562000637579182015b828111156200063657825182559160200191906001019062000619565b5b5090506200064691906200070a565b5090565b828054620006589062000c8b565b90600052602060002090601f0160209004810192826200067c5760008555620006cf565b82601f106200068f5780548555620006cf565b82800160010185558215620006cf57600052602060002091601f016020900482015b82811115620006ce578254825591600101919060010190620006b1565b5b509050620006de91906200070a565b5090565b5b80821115620007065760008181620006fc919062000729565b50600101620006e3565b5090565b5b80821115620007255760008160009055506001016200070b565b5090565b508054620007379062000c8b565b6000825580601f106200074b57506200076c565b601f0160209004906000526020600020908101906200076b91906200070a565b5b50565b600062000786620007808462000b86565b62000b5d565b90508083825260208201905082856020860282011115620007a657600080fd5b60005b85811015620007f557815167ffffffffffffffff811115620007ca57600080fd5b808601620007d9898262000913565b85526020850194506020840193505050600181019050620007a9565b5050509392505050565b600062000816620008108462000bb5565b62000b5d565b905080838252602082019050828560208602820111156200083657600080fd5b60005b858110156200086a57816200084f888262000940565b84526020840193506020830192505060018101905062000839565b5050509392505050565b60006200088b620008858462000be4565b62000b5d565b905082815260208101848484011115620008a457600080fd5b620008b184828562000c55565b509392505050565b600082601f830112620008cb57600080fd5b8151620008dd8482602086016200076f565b91505092915050565b600082601f830112620008f857600080fd5b81516200090a848260208601620007ff565b91505092915050565b600082601f8301126200092557600080fd5b81516200093784826020860162000874565b91505092915050565b600081519050620009518162000e5b565b92915050565b600080600080608085870312156200096e57600080fd5b600085015167ffffffffffffffff8111156200098957600080fd5b620009978782880162000913565b945050602085015167ffffffffffffffff811115620009b557600080fd5b620009c38782880162000913565b935050604085015167ffffffffffffffff811115620009e157600080fd5b620009ef87828801620008b9565b925050606085015167ffffffffffffffff81111562000a0d57600080fd5b62000a1b87828801620008e6565b91505092959194509250565b6000815462000a368162000c8b565b62000a42818662000c40565b9450600182166000811462000a60576001811462000a725762000aa9565b60ff1983168652818601935062000aa9565b62000a7d8562000c1a565b60005b8381101562000aa15781548189015260018201915060208101905062000a80565b838801955050505b50505092915050565b600062000ac160268362000c2f565b915062000ace8262000de3565b604082019050919050565b600062000ae860208362000c2f565b915062000af58262000e32565b602082019050919050565b600062000b0e828462000a27565b915081905092915050565b6000602082019050818103600083015262000b348162000ab2565b9050919050565b6000602082019050818103600083015262000b568162000ad9565b9050919050565b600062000b6962000b7c565b905062000b77828262000cc1565b919050565b6000604051905090565b600067ffffffffffffffff82111562000ba45762000ba362000da3565b5b602082029050602081019050919050565b600067ffffffffffffffff82111562000bd35762000bd262000da3565b5b602082029050602081019050919050565b600067ffffffffffffffff82111562000c025762000c0162000da3565b5b62000c0d8262000dd2565b9050602081019050919050565b60008190508160005260206000209050919050565b600082825260208201905092915050565b600081905092915050565b6000819050919050565b60005b8381101562000c7557808201518184015260208101905062000c58565b8381111562000c85576000848401525b50505050565b6000600282049050600182168062000ca457607f821691505b6020821081141562000cbb5762000cba62000d74565b5b50919050565b62000ccc8262000dd2565b810181811067ffffffffffffffff8211171562000cee5762000ced62000da3565b5b80604052505050565b600062000d048262000c4b565b91507fffffffffffffffffffffffffffffffffffffffffffffffffffffffffffffffff82141562000d3a5762000d3962000d45565b5b600182019050919050565b7f4e487b7100000000000000000000000000000000000000000000000000000000600052601160045260246000fd5b7f4e487b7100000000000000000000000000000000000000000000000000000000600052602260045260246000fd5b7f4e487b7100000000000000000000000000000000000000000000000000000000600052604160045260246000fd5b6000601f19601f8301169050919050565b7f4f776e61626c653a206e6577206f776e657220697320746865207a65726f206160008201527f6464726573730000000000000000000000000000000000000000000000000000602082015250565b7f4f776e61626c653a2063616c6c6572206973206e6f7420746865206f776e6572600082015250565b62000e668162000c4b565b811462000e7257600080fd5b50565b613cde8062000e856000396000f3fe60806040526004361061013f5760003560e01c80634e1273f4116100b6578063cd838f0f1161006f578063cd838f0f14610472578063e985e9c51461049d578063f242432a146104da578063f2fde38b14610503578063f6d8f2cb1461052c578063fac333ac146105695761013f565b80634e1273f4146103765780635b2bd79e146103b357806369fe0e2d146103de578063715018a6146104075780638da5cb5b1461041e578063a22cb465146104495761013f565b806313966db51161010857806313966db51461024f578063156e29f61461027a5780631f7fdffa146102aa5780632eb2c2d6146102d3578063364410b3146102fc5780634622ab03146103395761013f565b8062fdd58e1461014457806301ffc9a71461018157806302fe5305146101be57806306fdde03146101e75780630e89341c14610212575b600080fd5b34801561015057600080fd5b5061016b60048036038101906101669190612963565b6105a6565b60405161017891906132b7565b60405180910390f35b34801561018d57600080fd5b506101a860048036038101906101a39190612a5a565b61066f565b6040516101b591906130fa565b60405180910390f35b3480156101ca57600080fd5b506101e560048036038101906101e09190612aac565b610751565b005b3480156101f357600080fd5b506101fc610765565b6040516102099190613115565b60405180910390f35b34801561021e57600080fd5b5061023960048036038101906102349190612aed565b6107f3565b6040516102469190613115565b60405180910390f35b34801561025b57600080fd5b50610264610827565b60405161027191906132b7565b60405180910390f35b610294600480360381019061028f919061299f565b61082d565b6040516102a191906132b7565b60405180910390f35b3480156102b657600080fd5b506102d160048036038101906102cc919061287c565b610854565b005b3480156102df57600080fd5b506102fa60048036038101906102f5919061272e565b610866565b005b34801561030857600080fd5b50610323600480360381019061031e9190612aed565b610907565b6040516103309190613115565b60405180910390f35b34801561034557600080fd5b50610360600480360381019061035b9190612aed565b6109a7565b60405161036d9190613115565b60405180910390f35b34801561038257600080fd5b5061039d600480360381019061039891906129ee565b610a53565b6040516103aa91906130a1565b60405180910390f35b3480156103bf57600080fd5b506103c8610c04565b6040516103d59190613115565b60405180910390f35b3480156103ea57600080fd5b5061040560048036038101906104009190612aed565b610c92565b005b34801561041357600080fd5b5061041c610ca4565b005b34801561042a57600080fd5b50610433610cb8565b6040516104409190612fa2565b60405180910390f35b34801561045557600080fd5b50610470600480360381019061046b9190612927565b610ce2565b005b34801561047e57600080fd5b50610487610cf8565b604051610494919061307f565b60405180910390f35b3480156104a957600080fd5b506104c460048036038101906104bf91906126f2565b610dd1565b6040516104d191906130fa565b60405180910390f35b3480156104e657600080fd5b5061050160048036038101906104fc91906127ed565b610e65565b005b34801561050f57600080fd5b5061052a600480360381019061052591906126c9565b610f06565b005b34801561053857600080fd5b50610553600480360381019061054e9190612aac565b610f8a565b60405161056091906132b7565b60405180910390f35b34801561057557600080fd5b50610590600480360381019061058b9190612aed565b610fb8565b60405161059d91906132b7565b60405180910390f35b60008073ffffffffffffffffffffffffffffffffffffffff168373ffffffffffffffffffffffffffffffffffffffff161415610617576040517f08c379a000000000000000000000000000000000000000000000000000000000815260040161060e906131b7565b60405180910390fd5b60008083815260200190815260200160002060008473ffffffffffffffffffffffffffffffffffffffff1673ffffffffffffffffffffffffffffffffffffffff16815260200190815260200160002054905092915050565b60007fd9b67a26000000000000000000000000000000000000000000000000000000007bffffffffffffffffffffffffffffffffffffffffffffffffffffffff1916827bffffffffffffffffffffffffffffffffffffffffffffffffffffffff1916148061073a57507f0e89341c000000000000000000000000000000000000000000000000000000007bffffffffffffffffffffffffffffffffffffffffffffffffffffffff1916827bffffffffffffffffffffffffffffffffffffffffffffffffffffffff1916145b8061074a575061074982610fdc565b5b9050919050565b610759611046565b610762816110c4565b50565b6007805461077290613626565b80601f016020809104026020016040519081016040528092919081815260200182805461079e90613626565b80156107eb5780601f106107c0576101008083540402835291602001916107eb565b820191906000526020600020905b8154815290600101906020018083116107ce57829003601f168201915b505050505081565b60606006610800836110de565b604051602001610811929190612f73565b6040516020818303038152906040529050919050565b60085481565b600061084a8484846040518060200160405280600081525061128b565b8290509392505050565b6108608484848461143c565b50505050565b61086e6116b5565b73ffffffffffffffffffffffffffffffffffffffff168573ffffffffffffffffffffffffffffffffffffffff1614806108b457506108b3856108ae6116b5565b610dd1565b5b6108f3576040517f08c379a00000000000000000000000000000000000000000000000000000000081526004016108ea90613157565b60405180910390fd5b61090085858585856116bd565b5050505050565b600a602052806000526040600020600091509050805461092690613626565b80601f016020809104026020016040519081016040528092919081815260200182805461095290613626565b801561099f5780601f106109745761010080835404028352916020019161099f565b820191906000526020600020905b81548152906001019060200180831161098257829003601f168201915b505050505081565b600481815481106109b757600080fd5b9060005260206000200160009150905080546109d290613626565b80601f01602080910402602001604051908101604052809291908181526020018280546109fe90613626565b8015610a4b5780601f10610a2057610100808354040283529160200191610a4b565b820191906000526020600020905b815481529060010190602001808311610a2e57829003601f168201915b505050505081565b60608151835114610a99576040517f08c379a0000000000000000000000000000000000000000000000000000000008152600401610a9090613257565b60405180910390fd5b6000835167ffffffffffffffff811115610adc577f4e487b7100000000000000000000000000000000000000000000000000000000600052604160045260246000fd5b604051908082528060200260200182016040528015610b0a5781602001602082028036833780820191505090505b50905060005b8451811015610bf957610ba3858281518110610b55577f4e487b7100000000000000000000000000000000000000000000000000000000600052603260045260246000fd5b6020026020010151858381518110610b96577f4e487b7100000000000000000000000000000000000000000000000000000000600052603260045260246000fd5b60200260200101516105a6565b828281518110610bdc577f4e487b7100000000000000000000000000000000000000000000000000000000600052603260045260246000fd5b60200260200101818152505080610bf290613689565b9050610b10565b508091505092915050565b60068054610c1190613626565b80601f0160208091040260200160405190810160405280929190818152602001828054610c3d90613626565b8015610c8a5780601f10610c5f57610100808354040283529160200191610c8a565b820191906000526020600020905b815481529060010190602001808311610c6d57829003601f168201915b505050505081565b610c9a611046565b8060088190555050565b610cac611046565b610cb66000611a2b565b565b6000600360009054906101000a900473ffffffffffffffffffffffffffffffffffffffff16905090565b610cf4610ced6116b5565b8383611af1565b5050565b60606004805480602002602001604051908101604052809291908181526020016000905b82821015610dc8578382906000526020600020018054610d3b90613626565b80601f0160208091040260200160405190810160405280929190818152602001828054610d6790613626565b8015610db45780601f10610d8957610100808354040283529160200191610db4565b820191906000526020600020905b815481529060010190602001808311610d9757829003601f168201915b505050505081526020019060010190610d1c565b50505050905090565b6000600160008473ffffffffffffffffffffffffffffffffffffffff1673ffffffffffffffffffffffffffffffffffffffff16815260200190815260200160002060008373ffffffffffffffffffffffffffffffffffffffff1673ffffffffffffffffffffffffffffffffffffffff16815260200190815260200160002060009054906101000a900460ff16905092915050565b610e6d6116b5565b73ffffffffffffffffffffffffffffffffffffffff168573ffffffffffffffffffffffffffffffffffffffff161480610eb35750610eb285610ead6116b5565b610dd1565b5b610ef2576040517f08c379a0000000000000000000000000000000000000000000000000000000008152600401610ee990613157565b60405180910390fd5b610eff8585858585611c5e565b5050505050565b610f0e611046565b600073ffffffffffffffffffffffffffffffffffffffff168173ffffffffffffffffffffffffffffffffffffffff161415610f7e576040517f08c379a0000000000000000000000000000000000000000000000000000000008152600401610f7590613197565b60405180910390fd5b610f8781611a2b565b50565b6009818051602081018201805184825260208301602085012081835280955050505050506000915090505481565b60058181548110610fc857600080fd5b906000526020600020016000915090505481565b60007f01ffc9a7000000000000000000000000000000000000000000000000000000007bffffffffffffffffffffffffffffffffffffffffffffffffffffffff1916827bffffffffffffffffffffffffffffffffffffffffffffffffffffffff1916149050919050565b61104e6116b5565b73ffffffffffffffffffffffffffffffffffffffff1661106c610cb8565b73ffffffffffffffffffffffffffffffffffffffff16146110c2576040517f08c379a00000000000000000000000000000000000000000000000000000000081526004016110b990613217565b60405180910390fd5b565b80600290805190602001906110da9291906123c1565b5050565b60606000821415611126576040518060400160405280600181526020017f30000000000000000000000000000000000000000000000000000000000000008152509050611286565b600082905060005b6000821461115857808061114190613689565b915050600a82611151919061350b565b915061112e565b60008167ffffffffffffffff81111561119a577f4e487b7100000000000000000000000000000000000000000000000000000000600052604160045260246000fd5b6040519080825280601f01601f1916602001820160405280156111cc5781602001600182028036833780820191505090505b5090505b6000851461127f576001826111e5919061353c565b9150600a856111f491906136d2565b603061120091906134b5565b60f81b81838151811061123c577f4e487b7100000000000000000000000000000000000000000000000000000000600052603260045260246000fd5b60200101907effffffffffffffffffffffffffffffffffffffffffffffffffffffffffffff1916908160001a905350600a85611278919061350b565b94506111d0565b8093505050505b919050565b600073ffffffffffffffffffffffffffffffffffffffff168473ffffffffffffffffffffffffffffffffffffffff1614156112fb576040517f08c379a00000000000000000000000000000000000000000000000000000000081526004016112f290613297565b60405180910390fd5b60006113056116b5565b9050600061131285611efa565b9050600061131f85611efa565b905061133083600089858589611fc0565b8460008088815260200190815260200160002060008973ffffffffffffffffffffffffffffffffffffffff1673ffffffffffffffffffffffffffffffffffffffff168152602001908152602001600020600082825461138f91906134b5565b925050819055508673ffffffffffffffffffffffffffffffffffffffff16600073ffffffffffffffffffffffffffffffffffffffff168473ffffffffffffffffffffffffffffffffffffffff167fc3d58168c5ae7397731d063d5bbf3d657854427343f4c083240f7aacaa2d0f62898960405161140d9291906132d2565b60405180910390a461142483600089858589611fc8565b61143383600089898989611fd0565b50505050505050565b600073ffffffffffffffffffffffffffffffffffffffff168473ffffffffffffffffffffffffffffffffffffffff1614156114ac576040517f08c379a00000000000000000000000000000000000000000000000000000000081526004016114a390613297565b60405180910390fd5b81518351146114f0576040517f08c379a00000000000000000000000000000000000000000000000000000000081526004016114e790613277565b60405180910390fd5b60006114fa6116b5565b905061150b81600087878787611fc0565b60005b845181101561161057838181518110611550577f4e487b7100000000000000000000000000000000000000000000000000000000600052603260045260246000fd5b6020026020010151600080878481518110611594577f4e487b7100000000000000000000000000000000000000000000000000000000600052603260045260246000fd5b6020026020010151815260200190815260200160002060008873ffffffffffffffffffffffffffffffffffffffff1673ffffffffffffffffffffffffffffffffffffffff16815260200190815260200160002060008282546115f691906134b5565b92505081905550808061160890613689565b91505061150e565b508473ffffffffffffffffffffffffffffffffffffffff16600073ffffffffffffffffffffffffffffffffffffffff168273ffffffffffffffffffffffffffffffffffffffff167f4a39dc06d4c0dbc64b70af90fd698a233a518aa5d07e595d983b8c0526c8f7fb87876040516116889291906130c3565b60405180910390a461169f81600087878787611fc8565b6116ae816000878787876121b7565b5050505050565b600033905090565b8151835114611701576040517f08c379a00000000000000000000000000000000000000000000000000000000081526004016116f890613277565b60405180910390fd5b600073ffffffffffffffffffffffffffffffffffffffff168473ffffffffffffffffffffffffffffffffffffffff161415611771576040517f08c379a0000000000000000000000000000000000000000000000000000000008152600401611768906131d7565b60405180910390fd5b600061177b6116b5565b905061178b818787878787611fc0565b60005b84518110156119885760008582815181106117d2577f4e487b7100000000000000000000000000000000000000000000000000000000600052603260045260246000fd5b602002602001015190506000858381518110611817577f4e487b7100000000000000000000000000000000000000000000000000000000600052603260045260246000fd5b60200260200101519050600080600084815260200190815260200160002060008b73ffffffffffffffffffffffffffffffffffffffff1673ffffffffffffffffffffffffffffffffffffffff168152602001908152602001600020549050818110156118b8576040517f08c379a00000000000000000000000000000000000000000000000000000000081526004016118af906131f7565b60405180910390fd5b81810360008085815260200190815260200160002060008c73ffffffffffffffffffffffffffffffffffffffff1673ffffffffffffffffffffffffffffffffffffffff168152602001908152602001600020819055508160008085815260200190815260200160002060008b73ffffffffffffffffffffffffffffffffffffffff1673ffffffffffffffffffffffffffffffffffffffff168152602001908152602001600020600082825461196d91906134b5565b925050819055505050508061198190613689565b905061178e565b508473ffffffffffffffffffffffffffffffffffffffff168673ffffffffffffffffffffffffffffffffffffffff168273ffffffffffffffffffffffffffffffffffffffff167f4a39dc06d4c0dbc64b70af90fd698a233a518aa5d07e595d983b8c0526c8f7fb87876040516119ff9291906130c3565b60405180910390a4611a15818787878787611fc8565b611a238187878787876121b7565b505050505050565b6000600360009054906101000a900473ffffffffffffffffffffffffffffffffffffffff16905081600360006101000a81548173ffffffffffffffffffffffffffffffffffffffff021916908373ffffffffffffffffffffffffffffffffffffffff1602179055508173ffffffffffffffffffffffffffffffffffffffff168173ffffffffffffffffffffffffffffffffffffffff167f8be0079c531659141344cd1fd0a4f28419497f9722a3daafe3b4186f6b6457e060405160405180910390a35050565b8173ffffffffffffffffffffffffffffffffffffffff168373ffffffffffffffffffffffffffffffffffffffff161415611b60576040517f08c379a0000000000000000000000000000000000000000000000000000000008152600401611b5790613237565b60405180910390fd5b80600160008573ffffffffffffffffffffffffffffffffffffffff1673ffffffffffffffffffffffffffffffffffffffff16815260200190815260200160002060008473ffffffffffffffffffffffffffffffffffffffff1673ffffffffffffffffffffffffffffffffffffffff16815260200190815260200160002060006101000a81548160ff0219169083151502179055508173ffffffffffffffffffffffffffffffffffffffff168373ffffffffffffffffffffffffffffffffffffffff167f17307eab39ab6107e8899845ad3d59bd9653f200f220920489ca2b5937696c3183604051611c5191906130fa565b60405180910390a3505050565b600073ffffffffffffffffffffffffffffffffffffffff168473ffffffffffffffffffffffffffffffffffffffff161415611cce576040517f08c379a0000000000000000000000000000000000000000000000000000000008152600401611cc5906131d7565b60405180910390fd5b6000611cd86116b5565b90506000611ce585611efa565b90506000611cf285611efa565b9050611d02838989858589611fc0565b600080600088815260200190815260200160002060008a73ffffffffffffffffffffffffffffffffffffffff1673ffffffffffffffffffffffffffffffffffffffff16815260200190815260200160002054905085811015611d99576040517f08c379a0000000000000000000000000000000000000000000000000000000008152600401611d90906131f7565b60405180910390fd5b85810360008089815260200190815260200160002060008b73ffffffffffffffffffffffffffffffffffffffff1673ffffffffffffffffffffffffffffffffffffffff168152602001908152602001600020819055508560008089815260200190815260200160002060008a73ffffffffffffffffffffffffffffffffffffffff1673ffffffffffffffffffffffffffffffffffffffff1681526020019081526020016000206000828254611e4e91906134b5565b925050819055508773ffffffffffffffffffffffffffffffffffffffff168973ffffffffffffffffffffffffffffffffffffffff168573ffffffffffffffffffffffffffffffffffffffff167fc3d58168c5ae7397731d063d5bbf3d657854427343f4c083240f7aacaa2d0f628a8a604051611ecb9291906132d2565b60405180910390a4611ee1848a8a86868a611fc8565b611eef848a8a8a8a8a611fd0565b505050505050505050565b60606000600167ffffffffffffffff811115611f3f577f4e487b7100000000000000000000000000000000000000000000000000000000600052604160045260246000fd5b604051908082528060200260200182016040528015611f6d5781602001602082028036833780820191505090505b5090508281600081518110611fab577f4e487b7100000000000000000000000000000000000000000000000000000000600052603260045260246000fd5b60200260200101818152505080915050919050565b505050505050565b505050505050565b611fef8473ffffffffffffffffffffffffffffffffffffffff1661239e565b156121af578373ffffffffffffffffffffffffffffffffffffffff1663f23a6e6187878686866040518663ffffffff1660e01b8152600401612035959493929190613025565b602060405180830381600087803b15801561204f57600080fd5b505af192505050801561208057506040513d601f19601f8201168201806040525081019061207d9190612a83565b60015b6121265761208c6137bf565b806308c379a014156120e957506120a1613bb6565b806120ac57506120eb565b806040517f08c379a00000000000000000000000000000000000000000000000000000000081526004016120e09190613115565b60405180910390fd5b505b6040517f08c379a000000000000000000000000000000000000000000000000000000000815260040161211d90613137565b60405180910390fd5b63f23a6e6160e01b7bffffffffffffffffffffffffffffffffffffffffffffffffffffffff1916817bffffffffffffffffffffffffffffffffffffffffffffffffffffffff1916146121ad576040517f08c379a00000000000000000000000000000000000000000000000000000000081526004016121a490613177565b60405180910390fd5b505b505050505050565b6121d68473ffffffffffffffffffffffffffffffffffffffff1661239e565b15612396578373ffffffffffffffffffffffffffffffffffffffff1663bc197c8187878686866040518663ffffffff1660e01b815260040161221c959493929190612fbd565b602060405180830381600087803b15801561223657600080fd5b505af192505050801561226757506040513d601f19601f820116820180604052508101906122649190612a83565b60015b61230d576122736137bf565b806308c379a014156122d05750612288613bb6565b8061229357506122d2565b806040517f08c379a00000000000000000000000000000000000000000000000000000000081526004016122c79190613115565b60405180910390fd5b505b6040517f08c379a000000000000000000000000000000000000000000000000000000000815260040161230490613137565b60405180910390fd5b63bc197c8160e01b7bffffffffffffffffffffffffffffffffffffffffffffffffffffffff1916817bffffffffffffffffffffffffffffffffffffffffffffffffffffffff191614612394576040517f08c379a000000000000000000000000000000000000000000000000000000000815260040161238b90613177565b60405180910390fd5b505b505050505050565b6000808273ffffffffffffffffffffffffffffffffffffffff163b119050919050565b8280546123cd90613626565b90600052602060002090601f0160209004810192826123ef5760008555612436565b82601f1061240857805160ff1916838001178555612436565b82800160010185558215612436579182015b8281111561243557825182559160200191906001019061241a565b5b5090506124439190612447565b5090565b5b80821115612460576000816000905550600101612448565b5090565b600061247761247284613320565b6132fb565b9050808382526020820190508285602086028201111561249657600080fd5b60005b858110156124c657816124ac88826125b8565b845260208401935060208301925050600181019050612499565b5050509392505050565b60006124e36124de8461334c565b6132fb565b9050808382526020820190508285602086028201111561250257600080fd5b60005b85811015612532578161251888826126b4565b845260208401935060208301925050600181019050612505565b5050509392505050565b600061254f61254a84613378565b6132fb565b90508281526020810184848401111561256757600080fd5b6125728482856135e4565b509392505050565b600061258d612588846133a9565b6132fb565b9050828152602081018484840111156125a557600080fd5b6125b08482856135e4565b509392505050565b6000813590506125c781613c4c565b92915050565b600082601f8301126125de57600080fd5b81356125ee848260208601612464565b91505092915050565b600082601f83011261260857600080fd5b81356126188482602086016124d0565b91505092915050565b60008135905061263081613c63565b92915050565b60008135905061264581613c7a565b92915050565b60008151905061265a81613c7a565b92915050565b600082601f83011261267157600080fd5b813561268184826020860161253c565b91505092915050565b600082601f83011261269b57600080fd5b81356126ab84826020860161257a565b91505092915050565b6000813590506126c381613c91565b92915050565b6000602082840312156126db57600080fd5b60006126e9848285016125b8565b91505092915050565b6000806040838503121561270557600080fd5b6000612713858286016125b8565b9250506020612724858286016125b8565b9150509250929050565b600080600080600060a0868803121561274657600080fd5b6000612754888289016125b8565b9550506020612765888289016125b8565b945050604086013567ffffffffffffffff81111561278257600080fd5b61278e888289016125f7565b935050606086013567ffffffffffffffff8111156127ab57600080fd5b6127b7888289016125f7565b925050608086013567ffffffffffffffff8111156127d457600080fd5b6127e088828901612660565b9150509295509295909350565b600080600080600060a0868803121561280557600080fd5b6000612813888289016125b8565b9550506020612824888289016125b8565b9450506040612835888289016126b4565b9350506060612846888289016126b4565b925050608086013567ffffffffffffffff81111561286357600080fd5b61286f88828901612660565b9150509295509295909350565b6000806000806080858703121561289257600080fd5b60006128a0878288016125b8565b945050602085013567ffffffffffffffff8111156128bd57600080fd5b6128c9878288016125f7565b935050604085013567ffffffffffffffff8111156128e657600080fd5b6128f2878288016125f7565b925050606085013567ffffffffffffffff81111561290f57600080fd5b61291b87828801612660565b91505092959194509250565b6000806040838503121561293a57600080fd5b6000612948858286016125b8565b925050602061295985828601612621565b9150509250929050565b6000806040838503121561297657600080fd5b6000612984858286016125b8565b9250506020612995858286016126b4565b9150509250929050565b6000806000606084860312156129b457600080fd5b60006129c2868287016125b8565b93505060206129d3868287016126b4565b92505060406129e4868287016126b4565b9150509250925092565b60008060408385031215612a0157600080fd5b600083013567ffffffffffffffff811115612a1b57600080fd5b612a27858286016125cd565b925050602083013567ffffffffffffffff811115612a4457600080fd5b612a50858286016125f7565b9150509250929050565b600060208284031215612a6c57600080fd5b6000612a7a84828501612636565b91505092915050565b600060208284031215612a9557600080fd5b6000612aa38482850161264b565b91505092915050565b600060208284031215612abe57600080fd5b600082013567ffffffffffffffff811115612ad857600080fd5b612ae48482850161268a565b91505092915050565b600060208284031215612aff57600080fd5b6000612b0d848285016126b4565b91505092915050565b6000612b228383612c6c565b905092915050565b6000612b368383612f55565b60208301905092915050565b612b4b81613570565b82525050565b6000612b5c8261340f565b612b668185613455565b935083602082028501612b78856133da565b8060005b85811015612bb45784840389528151612b958582612b16565b9450612ba08361343b565b925060208a01995050600181019050612b7c565b50829750879550505050505092915050565b6000612bd18261341a565b612bdb8185613466565b9350612be6836133ea565b8060005b83811015612c17578151612bfe8882612b2a565b9750612c0983613448565b925050600181019050612bea565b5085935050505092915050565b612c2d81613582565b82525050565b6000612c3e82613425565b612c488185613477565b9350612c588185602086016135f3565b612c61816137e1565b840191505092915050565b6000612c7782613430565b612c818185613488565b9350612c918185602086016135f3565b612c9a816137e1565b840191505092915050565b6000612cb082613430565b612cba8185613499565b9350612cca8185602086016135f3565b612cd3816137e1565b840191505092915050565b6000612ce982613430565b612cf381856134aa565b9350612d038185602086016135f3565b80840191505092915050565b60008154612d1c81613626565b612d2681866134aa565b94506001821660008114612d415760018114612d5257612d85565b60ff19831686528186019350612d85565b612d5b856133fa565b60005b83811015612d7d57815481890152600182019150602081019050612d5e565b838801955050505b50505092915050565b6000612d9b603483613499565b9150612da6826137ff565b604082019050919050565b6000612dbe602f83613499565b9150612dc98261384e565b604082019050919050565b6000612de1602883613499565b9150612dec8261389d565b604082019050919050565b6000612e04602683613499565b9150612e0f826138ec565b604082019050919050565b6000612e27602a83613499565b9150612e328261393b565b604082019050919050565b6000612e4a602583613499565b9150612e558261398a565b604082019050919050565b6000612e6d602a83613499565b9150612e78826139d9565b604082019050919050565b6000612e906005836134aa565b9150612e9b82613a28565b600582019050919050565b6000612eb3602083613499565b9150612ebe82613a51565b602082019050919050565b6000612ed6602983613499565b9150612ee182613a7a565b604082019050919050565b6000612ef9602983613499565b9150612f0482613ac9565b604082019050919050565b6000612f1c602883613499565b9150612f2782613b18565b604082019050919050565b6000612f3f602183613499565b9150612f4a82613b67565b604082019050919050565b612f5e816135da565b82525050565b612f6d816135da565b82525050565b6000612f7f8285612d0f565b9150612f8b8284612cde565b9150612f9682612e83565b91508190509392505050565b6000602082019050612fb76000830184612b42565b92915050565b600060a082019050612fd26000830188612b42565b612fdf6020830187612b42565b8181036040830152612ff18186612bc6565b905081810360608301526130058185612bc6565b905081810360808301526130198184612c33565b90509695505050505050565b600060a08201905061303a6000830188612b42565b6130476020830187612b42565b6130546040830186612f64565b6130616060830185612f64565b81810360808301526130738184612c33565b90509695505050505050565b600060208201905081810360008301526130998184612b51565b905092915050565b600060208201905081810360008301526130bb8184612bc6565b905092915050565b600060408201905081810360008301526130dd8185612bc6565b905081810360208301526130f18184612bc6565b90509392505050565b600060208201905061310f6000830184612c24565b92915050565b6000602082019050818103600083015261312f8184612ca5565b905092915050565b6000602082019050818103600083015261315081612d8e565b9050919050565b6000602082019050818103600083015261317081612db1565b9050919050565b6000602082019050818103600083015261319081612dd4565b9050919050565b600060208201905081810360008301526131b081612df7565b9050919050565b600060208201905081810360008301526131d081612e1a565b9050919050565b600060208201905081810360008301526131f081612e3d565b9050919050565b6000602082019050818103600083015261321081612e60565b9050919050565b6000602082019050818103600083015261323081612ea6565b9050919050565b6000602082019050818103600083015261325081612ec9565b9050919050565b6000602082019050818103600083015261327081612eec565b9050919050565b6000602082019050818103600083015261329081612f0f565b9050919050565b600060208201905081810360008301526132b081612f32565b9050919050565b60006020820190506132cc6000830184612f64565b92915050565b60006040820190506132e76000830185612f64565b6132f46020830184612f64565b9392505050565b6000613305613316565b90506133118282613658565b919050565b6000604051905090565b600067ffffffffffffffff82111561333b5761333a613790565b5b602082029050602081019050919050565b600067ffffffffffffffff82111561336757613366613790565b5b602082029050602081019050919050565b600067ffffffffffffffff82111561339357613392613790565b5b61339c826137e1565b9050602081019050919050565b600067ffffffffffffffff8211156133c4576133c3613790565b5b6133cd826137e1565b9050602081019050919050565b6000819050602082019050919050565b6000819050602082019050919050565b60008190508160005260206000209050919050565b600081519050919050565b600081519050919050565b600081519050919050565b600081519050919050565b6000602082019050919050565b6000602082019050919050565b600082825260208201905092915050565b600082825260208201905092915050565b600082825260208201905092915050565b600082825260208201905092915050565b600082825260208201905092915050565b600081905092915050565b60006134c0826135da565b91506134cb836135da565b9250827fffffffffffffffffffffffffffffffffffffffffffffffffffffffffffffffff03821115613500576134ff613703565b5b828201905092915050565b6000613516826135da565b9150613521836135da565b92508261353157613530613732565b5b828204905092915050565b6000613547826135da565b9150613552836135da565b92508282101561356557613564613703565b5b828203905092915050565b600061357b826135ba565b9050919050565b60008115159050919050565b60007fffffffff0000000000000000000000000000000000000000000000000000000082169050919050565b600073ffffffffffffffffffffffffffffffffffffffff82169050919050565b6000819050919050565b82818337600083830152505050565b60005b838110156136115780820151818401526020810190506135f6565b83811115613620576000848401525b50505050565b6000600282049050600182168061363e57607f821691505b6020821081141561365257613651613761565b5b50919050565b613661826137e1565b810181811067ffffffffffffffff821117156136805761367f613790565b5b80604052505050565b6000613694826135da565b91507fffffffffffffffffffffffffffffffffffffffffffffffffffffffffffffffff8214156136c7576136c6613703565b5b600182019050919050565b60006136dd826135da565b91506136e8836135da565b9250826136f8576136f7613732565b5b828206905092915050565b7f4e487b7100000000000000000000000000000000000000000000000000000000600052601160045260246000fd5b7f4e487b7100000000000000000000000000000000000000000000000000000000600052601260045260246000fd5b7f4e487b7100000000000000000000000000000000000000000000000000000000600052602260045260246000fd5b7f4e487b7100000000000000000000000000000000000000000000000000000000600052604160045260246000fd5b600060033d11156137de5760046000803e6137db6000516137f2565b90505b90565b6000601f19601f8301169050919050565b60008160e01c9050919050565b7f455243313135353a207472616e7366657220746f206e6f6e204552433131353560008201527f526563656976657220696d706c656d656e746572000000000000000000000000602082015250565b7f455243313135353a2063616c6c6572206973206e6f7420746f6b656e206f776e60008201527f6572206e6f7220617070726f7665640000000000000000000000000000000000602082015250565b7f455243313135353a204552433131353552656365697665722072656a6563746560008201527f6420746f6b656e73000000000000000000000000000000000000000000000000602082015250565b7f4f776e61626c653a206e6577206f776e657220697320746865207a65726f206160008201527f6464726573730000000000000000000000000000000000000000000000000000602082015250565b7f455243313135353a2061646472657373207a65726f206973206e6f742061207660008201527f616c6964206f776e657200000000000000000000000000000000000000000000602082015250565b7f455243313135353a207472616e7366657220746f20746865207a65726f20616460008201527f6472657373000000000000000000000000000000000000000000000000000000602082015250565b7f455243313135353a20696e73756666696369656e742062616c616e636520666f60008201527f72207472616e7366657200000000000000000000000000000000000000000000602082015250565b7f2e6a736f6e000000000000000000000000000000000000000000000000000000600082015250565b7f4f776e61626c653a2063616c6c6572206973206e6f7420746865206f776e6572600082015250565b7f455243313135353a2073657474696e6720617070726f76616c2073746174757360008201527f20666f722073656c660000000000000000000000000000000000000000000000602082015250565b7f455243313135353a206163636f756e747320616e6420696473206c656e67746860008201527f206d69736d617463680000000000000000000000000000000000000000000000602082015250565b7f455243313135353a2069647320616e6420616d6f756e7473206c656e6774682060008201527f6d69736d61746368000000000000000000000000000000000000000000000000602082015250565b7f455243313135353a206d696e7420746f20746865207a65726f2061646472657360008201527f7300000000000000000000000000000000000000000000000000000000000000602082015250565b600060443d1015613bc657613c49565b613bce613316565b60043d036004823e80513d602482011167ffffffffffffffff82111715613bf6575050613c49565b808201805167ffffffffffffffff811115613c145750505050613c49565b80602083010160043d038501811115613c31575050505050613c49565b613c4082602001850186613658565b82955050505050505b90565b613c5581613570565b8114613c6057600080fd5b50565b613c6c81613582565b8114613c7757600080fd5b50565b613c838161358e565b8114613c8e57600080fd5b50565b613c9a816135da565b8114613ca557600080fd5b5056fea2646970667358221220c2345fb28580f2486dc902105389066e41c05ff5f0ceb9939cbed1dd333e40f264736f6c63430008040033a26469706673582212206f671a17b3b9f37c1ba870826640b62a48edca9b499418c43b3b3cdd297cbb1c64736f6c63430008040033",
  "linkReferences": {},
  "deployedLinkReferences": {}
}